{
  "contractName": "League",
  "abi": [
    {
      "constant": true,
      "inputs": [],
      "name": "manager",
      "outputs": [
        {
          "name": "",
          "type": "address"
        }
      ],
      "payable": false,
      "stateMutability": "view",
      "type": "function"
    },
    {
      "constant": true,
      "inputs": [
        {
          "name": "",
          "type": "uint256"
        }
      ],
      "name": "competitions",
      "outputs": [
        {
          "name": "manager",
          "type": "address"
        },
        {
          "name": "complete",
          "type": "bool"
        },
        {
          "name": "prizeMoney",
          "type": "uint256"
        },
        {
          "name": "maxPlayers",
          "type": "uint256"
        }
      ],
      "payable": false,
      "stateMutability": "view",
      "type": "function"
    },
    {
      "inputs": [
        {
          "name": "creator",
          "type": "address"
        }
      ],
      "payable": false,
      "stateMutability": "nonpayable",
      "type": "constructor"
    },
    {
      "constant": false,
      "inputs": [
        {
          "name": "max",
          "type": "uint256"
        }
      ],
      "name": "createCompetition",
      "outputs": [],
      "payable": true,
      "stateMutability": "payable",
      "type": "function"
    },
    {
      "constant": false,
      "inputs": [
        {
          "name": "index",
          "type": "uint256"
        }
      ],
      "name": "joinCompetition",
      "outputs": [],
      "payable": false,
      "stateMutability": "nonpayable",
      "type": "function"
    },
    {
      "constant": false,
      "inputs": [
        {
          "name": "index",
          "type": "uint256"
        },
        {
          "name": "winner",
          "type": "address"
        }
      ],
      "name": "awardWinner",
      "outputs": [],
      "payable": false,
      "stateMutability": "nonpayable",
      "type": "function"
    }
  ],
  "bytecode": "0x608060405234801561001057600080fd5b506040516020806106d08339810180604052602081101561003057600080fd5b8101908080519060200190929190505050806000806101000a81548173ffffffffffffffffffffffffffffffffffffffff021916908373ffffffffffffffffffffffffffffffffffffffff1602179055505061063f806100916000396000f3fe60806040526004361061006d576000357c0100000000000000000000000000000000000000000000000000000000900463ffffffff1680631095846f14610072578063481c6a75146100ad57806371730b5f14610104578063958bc07d1461015f5780639f6828d91461018d575b600080fd5b34801561007e57600080fd5b506100ab6004803603602081101561009557600080fd5b8101908080359060200190929190505050610221565b005b3480156100b957600080fd5b506100c2610310565b604051808273ffffffffffffffffffffffffffffffffffffffff1673ffffffffffffffffffffffffffffffffffffffff16815260200191505060405180910390f35b34801561011057600080fd5b5061015d6004803603604081101561012757600080fd5b8101908080359060200190929190803573ffffffffffffffffffffffffffffffffffffffff169060200190929190505050610335565b005b61018b6004803603602081101561017557600080fd5b8101908080359060200190929190505050610471565b005b34801561019957600080fd5b506101c6600480360360208110156101b057600080fd5b8101908080359060200190929190505050610566565b604051808573ffffffffffffffffffffffffffffffffffffffff1673ffffffffffffffffffffffffffffffffffffffff1681526020018415151515815260200183815260200182815260200194505050505060405180910390f35b60018181548110151561023057fe5b906000526020600020906004020160030160003373ffffffffffffffffffffffffffffffffffffffff1673ffffffffffffffffffffffffffffffffffffffff16815260200190815260200160002060009054906101000a900460ff1615151561029857600080fd5b600180828154811015156102a857fe5b906000526020600020906004020160030160003373ffffffffffffffffffffffffffffffffffffffff1673ffffffffffffffffffffffffffffffffffffffff16815260200190815260200160002060006101000a81548160ff02191690831515021790555050565b6000809054906101000a900473ffffffffffffffffffffffffffffffffffffffff1681565b6000809054906101000a900473ffffffffffffffffffffffffffffffffffffffff1673ffffffffffffffffffffffffffffffffffffffff163373ffffffffffffffffffffffffffffffffffffffff1614151561039057600080fd5b60018281548110151561039f57fe5b906000526020600020906004020160030160008273ffffffffffffffffffffffffffffffffffffffff1673ffffffffffffffffffffffffffffffffffffffff16815260200190815260200160002060009054906101000a900460ff16151561040657600080fd5b8073ffffffffffffffffffffffffffffffffffffffff166108fc60018481548110151561042f57fe5b9060005260206000209060040201600101549081150290604051600060405180830381858888f1935050505015801561046c573d6000803e3d6000fd5b505050565b6104796105d2565b6080604051908101604052803373ffffffffffffffffffffffffffffffffffffffff1681526020016000151581526020013481526020018381525090506001819080600181540180825580915050906001820390600052602060002090600402016000909192909190915060008201518160000160006101000a81548173ffffffffffffffffffffffffffffffffffffffff021916908373ffffffffffffffffffffffffffffffffffffffff16021790555060208201518160000160146101000a81548160ff02191690831515021790555060408201518160010155606082015181600201555050505050565b60018181548110151561057557fe5b90600052602060002090600402016000915090508060000160009054906101000a900473ffffffffffffffffffffffffffffffffffffffff16908060000160149054906101000a900460ff16908060010154908060020154905084565b608060405190810160405280600073ffffffffffffffffffffffffffffffffffffffff1681526020016000151581526020016000815260200160008152509056fea165627a7a72305820f2c262ec7f2bb5a340bdee7d4c3ad26e905272a1e13d890975708f4478f6c2180029",
  "source": "pragma solidity ^0.5.0;\r\n\r\n\r\ncontract League {\r\naddress public manager;\r\n    //restrictor\r\n    modifier restricted(){\r\n        require(msg.sender == manager);\r\n        _;\r\n    }\r\n    struct Competition{\r\n        address manager;\r\n        bool complete;\r\n        uint prizeMoney;\r\n        uint maxPlayers;\r\n        mapping(address=> bool) competitor;\r\n    }\r\n    \r\n    Competition[] public competitions;\r\n    \r\n    //constructor\r\n   constructor(address creator ) public{\r\n        manager = creator;\r\n        \r\n    }\r\n    //create Competition\r\n    function createCompetition(uint max) public payable{\r\n        \r\n        Competition memory newCompetition = Competition({\r\n            manager: msg.sender,\r\n            complete: false,\r\n            maxPlayers: max,\r\n            prizeMoney: msg.value\r\n        });\r\n        \r\n        competitions.push(newCompetition);\r\n        \r\n    }\r\n    \r\n    //join competitions using competion inde\r\n    function joinCompetition(uint index) public{\r\n        //check if joining twice\r\n        require(!competitions[index].competitor[msg.sender]);\r\n        // add msg sender to competition\r\n        competitions[index].competitor[msg.sender]= true;\r\n        \r\n    }\r\n    \r\n    //award winner using winner address\r\n    function awardWinner(uint index, address payable winner) public restricted{\r\n         //check if address is in competition\r\n        require(competitions[index].competitor[winner]);\r\n        // send winner the cash\r\n        winner.transfer(competitions[index].prizeMoney);\r\n        \r\n        \r\n    }\r\n}\r\n",
  "sourcePath": "C:\\Users\\Solut\\Google Drive\\work2\\projects\\fantasyCoin1.2\\contracts\\leagues.sol",
  "compiler": {
    "name": "solc",
    "version": "0.5.0+commit.1d4f565a.Emscripten.clang"
  },
  "schemaVersion": "3.0.5",
  "updatedAt": "2019-04-11T08:32:41.994Z",
  "devdoc": {
    "methods": {}
  },
  "userdoc": {
    "methods": {}
  }
}