{
  "contractName": "League",
  "abi": [
    {
      "constant": true,
      "inputs": [],
      "name": "manager",
      "outputs": [
        {
          "name": "",
          "type": "address"
        }
      ],
      "payable": false,
      "stateMutability": "view",
      "type": "function"
    },
    {
      "constant": true,
      "inputs": [
        {
          "name": "",
          "type": "uint256"
        }
      ],
      "name": "competitions",
      "outputs": [
        {
          "name": "manager",
          "type": "address"
        },
        {
          "name": "complete",
          "type": "bool"
        },
        {
          "name": "prizeMoney",
          "type": "uint256"
        },
        {
          "name": "maxPlayers",
          "type": "uint256"
        },
        {
          "name": "playerNo",
          "type": "uint256"
        }
      ],
      "payable": false,
      "stateMutability": "view",
      "type": "function"
    },
    {
      "inputs": [
        {
          "name": "creator",
          "type": "address"
        }
      ],
      "payable": false,
      "stateMutability": "nonpayable",
      "type": "constructor"
    },
    {
      "constant": false,
      "inputs": [
        {
          "name": "max",
          "type": "uint256"
        }
      ],
      "name": "createCompetition",
      "outputs": [],
      "payable": true,
      "stateMutability": "payable",
      "type": "function"
    },
    {
      "constant": false,
      "inputs": [
        {
          "name": "index",
          "type": "uint256"
        }
      ],
      "name": "joinCompetition",
      "outputs": [],
      "payable": false,
      "stateMutability": "nonpayable",
      "type": "function"
    },
    {
      "constant": false,
      "inputs": [
        {
          "name": "index",
          "type": "uint256"
        },
        {
          "name": "winner",
          "type": "address"
        }
      ],
      "name": "awardWinner",
      "outputs": [],
      "payable": false,
      "stateMutability": "nonpayable",
      "type": "function"
    },
    {
      "constant": true,
      "inputs": [],
      "name": "getCompetitionCount",
      "outputs": [
        {
          "name": "",
          "type": "uint256"
        }
      ],
      "payable": false,
      "stateMutability": "view",
      "type": "function"
    }
  ],
  "bytecode": "0x608060405234801561001057600080fd5b506040516020806107558339810180604052602081101561003057600080fd5b8101908080519060200190929190505050806000806101000a81548173ffffffffffffffffffffffffffffffffffffffff021916908373ffffffffffffffffffffffffffffffffffffffff160217905550506106c4806100916000396000f3fe608060405260043610610078576000357c0100000000000000000000000000000000000000000000000000000000900463ffffffff1680631095846f1461007d578063481c6a75146100b857806371730b5f1461010f578063958bc07d1461016a5780639f6828d914610198578063eb1fa9fa14610233575b600080fd5b34801561008957600080fd5b506100b6600480360360208110156100a057600080fd5b810190808035906020019092919050505061025e565b005b3480156100c457600080fd5b506100cd61036a565b604051808273ffffffffffffffffffffffffffffffffffffffff1673ffffffffffffffffffffffffffffffffffffffff16815260200191505060405180910390f35b34801561011b57600080fd5b506101686004803603604081101561013257600080fd5b8101908080359060200190929190803573ffffffffffffffffffffffffffffffffffffffff16906020019092919050505061038f565b005b6101966004803603602081101561018057600080fd5b81019080803590602001909291905050506104cb565b005b3480156101a457600080fd5b506101d1600480360360208110156101bb57600080fd5b81019080803590602001909291905050506105d1565b604051808673ffffffffffffffffffffffffffffffffffffffff1673ffffffffffffffffffffffffffffffffffffffff168152602001851515151581526020018481526020018381526020018281526020019550505050505060405180910390f35b34801561023f57600080fd5b50610248610643565b6040518082815260200191505060405180910390f35b60018181548110151561026d57fe5b906000526020600020906005020160040160003373ffffffffffffffffffffffffffffffffffffffff1673ffffffffffffffffffffffffffffffffffffffff16815260200190815260200160002060009054906101000a900460ff161515156102d557600080fd5b600180828154811015156102e557fe5b906000526020600020906005020160040160003373ffffffffffffffffffffffffffffffffffffffff1673ffffffffffffffffffffffffffffffffffffffff16815260200190815260200160002060006101000a81548160ff0219169083151502179055506001808281548110151561035a57fe5b9060005260206000209050505050565b6000809054906101000a900473ffffffffffffffffffffffffffffffffffffffff1681565b6000809054906101000a900473ffffffffffffffffffffffffffffffffffffffff1673ffffffffffffffffffffffffffffffffffffffff163373ffffffffffffffffffffffffffffffffffffffff161415156103ea57600080fd5b6001828154811015156103f957fe5b906000526020600020906005020160040160008273ffffffffffffffffffffffffffffffffffffffff1673ffffffffffffffffffffffffffffffffffffffff16815260200190815260200160002060009054906101000a900460ff16151561046057600080fd5b8073ffffffffffffffffffffffffffffffffffffffff166108fc60018481548110151561048957fe5b9060005260206000209060050201600101549081150290604051600060405180830381858888f193505050501580156104c6573d6000803e3d6000fd5b505050565b6104d3610650565b60a0604051908101604052803373ffffffffffffffffffffffffffffffffffffffff168152602001600015158152602001348152602001838152602001600081525090506001819080600181540180825580915050906001820390600052602060002090600502016000909192909190915060008201518160000160006101000a81548173ffffffffffffffffffffffffffffffffffffffff021916908373ffffffffffffffffffffffffffffffffffffffff16021790555060208201518160000160146101000a81548160ff0219169083151502179055506040820151816001015560608201518160020155608082015181600301555050505050565b6001818154811015156105e057fe5b90600052602060002090600502016000915090508060000160009054906101000a900473ffffffffffffffffffffffffffffffffffffffff16908060000160149054906101000a900460ff16908060010154908060020154908060030154905085565b6000600180549050905090565b60a060405190810160405280600073ffffffffffffffffffffffffffffffffffffffff168152602001600015158152602001600081526020016000815260200160008152509056fea165627a7a72305820f2dfaa327962f55d53c95e5801ca587aa2d95f34b3d0997791ea865d3f2c51c20029",
  "source": "pragma solidity ^0.5.0;\r\n\r\n\r\ncontract League {\r\naddress public manager;\r\n    //restrictor\r\n    modifier restricted(){\r\n        require(msg.sender == manager);\r\n        _;\r\n    }\r\n    struct Competition{\r\n        address manager;\r\n        bool complete;\r\n        uint prizeMoney;\r\n        uint maxPlayers;\r\n        uint playerNo;\r\n        mapping(address=> bool) competitor;\r\n    }\r\n    \r\n    Competition[] public competitions;\r\n    \r\n    //constructor\r\n   constructor(address creator ) public{\r\n        manager = creator;\r\n        \r\n    }\r\n    //create Competition\r\n    function createCompetition(uint max) public payable{\r\n        \r\n        Competition memory newCompetition = Competition({\r\n            manager: msg.sender,\r\n            complete: false,\r\n            maxPlayers: max,\r\n            playerNo: 0,\r\n            prizeMoney: msg.value\r\n        });\r\n        \r\n        competitions.push(newCompetition);\r\n        \r\n    }\r\n    \r\n    //join competitions using competion inde\r\n    function joinCompetition(uint index) public{\r\n        //check if joining twice\r\n        require(!competitions[index].competitor[msg.sender]);\r\n        // add msg sender to competition\r\n        competitions[index].competitor[msg.sender]= true;\r\n        competitions[index].playerNo+1;\r\n    }\r\n    \r\n    //award winner using winner address\r\n    function awardWinner(uint index, address payable winner) public restricted{\r\n         //check if address is in competition\r\n        require(competitions[index].competitor[winner]);\r\n        // send winner the cash\r\n        winner.transfer(competitions[index].prizeMoney);\r\n        \r\n        \r\n    }\r\n    function getCompetitionCount() public view returns(uint){\r\n        return competitions.length;\r\n    }\r\n        \r\n    \r\n}\r\n",
  "sourcePath": "C:\\Users\\Solut\\Google Drive\\work2\\projects\\fantasyCoin1.2\\contracts\\leagues.sol",
  "compiler": {
    "name": "solc",
    "version": "0.5.0+commit.1d4f565a.Emscripten.clang"
  },
  "schemaVersion": "3.0.5",
  "updatedAt": "2019-04-12T10:07:24.471Z",
  "devdoc": {
    "methods": {}
  },
  "userdoc": {
    "methods": {}
  }
}